{
  "contractName": "MyToken",
  "abi": [
    {
      "inputs": [
        {
          "internalType": "string",
          "name": "name",
          "type": "string"
        },
        {
          "internalType": "string",
          "name": "symbol",
          "type": "string"
        },
        {
          "internalType": "uint256",
          "name": "_amount",
          "type": "uint256"
        },
        {
          "internalType": "uint256",
          "name": "partialPrice",
          "type": "uint256"
        }
      ],
      "stateMutability": "nonpayable",
      "type": "constructor"
    },
    {
      "anonymous": false,
      "inputs": [
        {
          "indexed": true,
          "internalType": "address",
          "name": "owner",
          "type": "address"
        },
        {
          "indexed": true,
          "internalType": "address",
          "name": "spender",
          "type": "address"
        },
        {
          "indexed": false,
          "internalType": "uint256",
          "name": "value",
          "type": "uint256"
        }
      ],
      "name": "Approval",
      "type": "event"
    },
    {
      "anonymous": false,
      "inputs": [
        {
          "indexed": true,
          "internalType": "address",
          "name": "from",
          "type": "address"
        },
        {
          "indexed": true,
          "internalType": "address",
          "name": "to",
          "type": "address"
        },
        {
          "indexed": false,
          "internalType": "uint256",
          "name": "value",
          "type": "uint256"
        }
      ],
      "name": "Transfer",
      "type": "event"
    },
    {
      "inputs": [
        {
          "internalType": "address",
          "name": "owner",
          "type": "address"
        },
        {
          "internalType": "address",
          "name": "spender",
          "type": "address"
        }
      ],
      "name": "allowance",
      "outputs": [
        {
          "internalType": "uint256",
          "name": "",
          "type": "uint256"
        }
      ],
      "stateMutability": "view",
      "type": "function",
      "constant": true
    },
    {
      "inputs": [
        {
          "internalType": "address",
          "name": "spender",
          "type": "address"
        },
        {
          "internalType": "uint256",
          "name": "amount",
          "type": "uint256"
        }
      ],
      "name": "approve",
      "outputs": [
        {
          "internalType": "bool",
          "name": "",
          "type": "bool"
        }
      ],
      "stateMutability": "nonpayable",
      "type": "function"
    },
    {
      "inputs": [
        {
          "internalType": "address",
          "name": "account",
          "type": "address"
        }
      ],
      "name": "balanceOf",
      "outputs": [
        {
          "internalType": "uint256",
          "name": "",
          "type": "uint256"
        }
      ],
      "stateMutability": "view",
      "type": "function",
      "constant": true
    },
    {
      "inputs": [],
      "name": "decimals",
      "outputs": [
        {
          "internalType": "uint8",
          "name": "",
          "type": "uint8"
        }
      ],
      "stateMutability": "view",
      "type": "function",
      "constant": true
    },
    {
      "inputs": [
        {
          "internalType": "address",
          "name": "spender",
          "type": "address"
        },
        {
          "internalType": "uint256",
          "name": "subtractedValue",
          "type": "uint256"
        }
      ],
      "name": "decreaseAllowance",
      "outputs": [
        {
          "internalType": "bool",
          "name": "",
          "type": "bool"
        }
      ],
      "stateMutability": "nonpayable",
      "type": "function"
    },
    {
      "inputs": [
        {
          "internalType": "address",
          "name": "spender",
          "type": "address"
        },
        {
          "internalType": "uint256",
          "name": "addedValue",
          "type": "uint256"
        }
      ],
      "name": "increaseAllowance",
      "outputs": [
        {
          "internalType": "bool",
          "name": "",
          "type": "bool"
        }
      ],
      "stateMutability": "nonpayable",
      "type": "function"
    },
    {
      "inputs": [],
      "name": "name",
      "outputs": [
        {
          "internalType": "string",
          "name": "",
          "type": "string"
        }
      ],
      "stateMutability": "view",
      "type": "function",
      "constant": true
    },
    {
      "inputs": [],
      "name": "symbol",
      "outputs": [
        {
          "internalType": "string",
          "name": "",
          "type": "string"
        }
      ],
      "stateMutability": "view",
      "type": "function",
      "constant": true
    },
    {
      "inputs": [],
      "name": "totalSupply",
      "outputs": [
        {
          "internalType": "uint256",
          "name": "",
          "type": "uint256"
        }
      ],
      "stateMutability": "view",
      "type": "function",
      "constant": true
    },
    {
      "inputs": [
        {
          "internalType": "address",
          "name": "to",
          "type": "address"
        },
        {
          "internalType": "uint256",
          "name": "amount",
          "type": "uint256"
        }
      ],
      "name": "transfer",
      "outputs": [
        {
          "internalType": "bool",
          "name": "",
          "type": "bool"
        }
      ],
      "stateMutability": "nonpayable",
      "type": "function"
    },
    {
      "inputs": [
        {
          "internalType": "address",
          "name": "from",
          "type": "address"
        },
        {
          "internalType": "address",
          "name": "to",
          "type": "address"
        },
        {
          "internalType": "uint256",
          "name": "amount",
          "type": "uint256"
        }
      ],
      "name": "transferFrom",
      "outputs": [
        {
          "internalType": "bool",
          "name": "",
          "type": "bool"
        }
      ],
      "stateMutability": "nonpayable",
      "type": "function"
    },
    {
      "inputs": [
        {
          "internalType": "uint256",
          "name": "_price",
          "type": "uint256"
        }
      ],
      "name": "setPrice",
      "outputs": [],
      "stateMutability": "nonpayable",
      "type": "function"
    },
    {
      "inputs": [],
      "name": "getPrice",
      "outputs": [
        {
          "internalType": "uint256",
          "name": "",
          "type": "uint256"
        }
      ],
      "stateMutability": "view",
      "type": "function",
      "constant": true
    },
    {
      "inputs": [
        {
          "internalType": "uint256",
          "name": "_amountCoins",
          "type": "uint256"
        }
      ],
      "name": "calculateTotalSum",
      "outputs": [
        {
          "internalType": "uint256",
          "name": "",
          "type": "uint256"
        }
      ],
      "stateMutability": "view",
      "type": "function",
      "constant": true
    },
    {
      "inputs": [
        {
          "internalType": "uint256",
          "name": "weiCount",
          "type": "uint256"
        }
      ],
      "name": "calculateTotalAmountsOfCoin",
      "outputs": [
        {
          "internalType": "uint256",
          "name": "",
          "type": "uint256"
        }
      ],
      "stateMutability": "view",
      "type": "function",
      "constant": true
    }
  ],
  "bytecode": "0x6080604052670de0b6b3a76400006006553480156200001d57600080fd5b5060405162001d5b38038062001d5b833981810160405281019062000043919062000528565b838381600390805190602001906200005d929190620002a0565b50806004908051906020019062000076929190620002a0565b50505033600560006101000a81548173ffffffffffffffffffffffffffffffffffffffff021916908373ffffffffffffffffffffffffffffffffffffffff1602179055508181600654620000cb919062000607565b620000d7919062000607565b60068190555062000113600560009054906101000a900473ffffffffffffffffffffffffffffffffffffffff166006546200011d60201b60201c565b50505050620007db565b600073ffffffffffffffffffffffffffffffffffffffff168273ffffffffffffffffffffffffffffffffffffffff16141562000190576040517f08c379a00000000000000000000000000000000000000000000000000000000081526004016200018790620006c9565b60405180910390fd5b620001a4600083836200029660201b60201c565b8060026000828254620001b89190620006eb565b92505081905550806000808473ffffffffffffffffffffffffffffffffffffffff1673ffffffffffffffffffffffffffffffffffffffff16815260200190815260200160002060008282546200020f9190620006eb565b925050819055508173ffffffffffffffffffffffffffffffffffffffff16600073ffffffffffffffffffffffffffffffffffffffff167fddf252ad1be2c89b69c2b068fc378daa952ba7f163c4a11628f55a4df523b3ef8360405162000276919062000759565b60405180910390a362000292600083836200029b60201b60201c565b5050565b505050565b505050565b828054620002ae90620007a5565b90600052602060002090601f016020900481019282620002d257600085556200031e565b82601f10620002ed57805160ff19168380011785556200031e565b828001600101855582156200031e579182015b828111156200031d57825182559160200191906001019062000300565b5b5090506200032d919062000331565b5090565b5b808211156200034c57600081600090555060010162000332565b5090565b6000604051905090565b600080fd5b600080fd5b600080fd5b600080fd5b6000601f19601f8301169050919050565b7f4e487b7100000000000000000000000000000000000000000000000000000000600052604160045260246000fd5b620003b9826200036e565b810181811067ffffffffffffffff82111715620003db57620003da6200037f565b5b80604052505050565b6000620003f062000350565b9050620003fe8282620003ae565b919050565b600067ffffffffffffffff8211156200042157620004206200037f565b5b6200042c826200036e565b9050602081019050919050565b60005b83811015620004595780820151818401526020810190506200043c565b8381111562000469576000848401525b50505050565b600062000486620004808462000403565b620003e4565b905082815260208101848484011115620004a557620004a462000369565b5b620004b284828562000439565b509392505050565b600082601f830112620004d257620004d162000364565b5b8151620004e48482602086016200046f565b91505092915050565b6000819050919050565b6200050281620004ed565b81146200050e57600080fd5b50565b6000815190506200052281620004f7565b92915050565b600080600080608085870312156200054557620005446200035a565b5b600085015167ffffffffffffffff8111156200056657620005656200035f565b5b6200057487828801620004ba565b945050602085015167ffffffffffffffff8111156200059857620005976200035f565b5b620005a687828801620004ba565b9350506040620005b98782880162000511565b9250506060620005cc8782880162000511565b91505092959194509250565b7f4e487b7100000000000000000000000000000000000000000000000000000000600052601160045260246000fd5b60006200061482620004ed565b91506200062183620004ed565b9250817fffffffffffffffffffffffffffffffffffffffffffffffffffffffffffffffff04831182151516156200065d576200065c620005d8565b5b828202905092915050565b600082825260208201905092915050565b7f45524332303a206d696e7420746f20746865207a65726f206164647265737300600082015250565b6000620006b1601f8362000668565b9150620006be8262000679565b602082019050919050565b60006020820190508181036000830152620006e481620006a2565b9050919050565b6000620006f882620004ed565b91506200070583620004ed565b9250827fffffffffffffffffffffffffffffffffffffffffffffffffffffffffffffffff038211156200073d576200073c620005d8565b5b828201905092915050565b6200075381620004ed565b82525050565b600060208201905062000770600083018462000748565b92915050565b7f4e487b7100000000000000000000000000000000000000000000000000000000600052602260045260246000fd5b60006002820490506001821680620007be57607f821691505b60208210811415620007d557620007d462000776565b5b50919050565b61157080620007eb6000396000f3fe608060405234801561001057600080fd5b50600436106100f55760003560e01c806370a08231116100975780639ba27232116100665780639ba272321461029c578063a457c2d7146102cc578063a9059cbb146102fc578063dd62ed3e1461032c576100f5565b806370a082311461021457806391b7f5ed1461024457806395d89b411461026057806398d5fdca1461027e576100f5565b806323b872dd116100d357806323b872dd14610166578063313ce5671461019657806339509351146101b457806339b74b38146101e4576100f5565b806306fdde03146100fa578063095ea7b31461011857806318160ddd14610148575b600080fd5b61010261035c565b60405161010f9190610d43565b60405180910390f35b610132600480360381019061012d9190610dfe565b6103ee565b60405161013f9190610e59565b60405180910390f35b610150610411565b60405161015d9190610e83565b60405180910390f35b610180600480360381019061017b9190610e9e565b61041b565b60405161018d9190610e59565b60405180910390f35b61019e61044a565b6040516101ab9190610f0d565b60405180910390f35b6101ce60048036038101906101c99190610dfe565b610453565b6040516101db9190610e59565b60405180910390f35b6101fe60048036038101906101f99190610f28565b6104fd565b60405161020b9190610e83565b60405180910390f35b61022e60048036038101906102299190610f55565b610527565b60405161023b9190610e83565b60405180910390f35b61025e60048036038101906102599190610f28565b61056f565b005b610268610579565b6040516102759190610d43565b60405180910390f35b61028661060b565b6040516102939190610e83565b60405180910390f35b6102b660048036038101906102b19190610f28565b610615565b6040516102c39190610e83565b60405180910390f35b6102e660048036038101906102e19190610dfe565b61062c565b6040516102f39190610e59565b60405180910390f35b61031660048036038101906103119190610dfe565b610716565b6040516103239190610e59565b60405180910390f35b61034660048036038101906103419190610f82565b610739565b6040516103539190610e83565b60405180910390f35b60606003805461036b90610ff1565b80601f016020809104026020016040519081016040528092919081815260200182805461039790610ff1565b80156103e45780601f106103b9576101008083540402835291602001916103e4565b820191906000526020600020905b8154815290600101906020018083116103c757829003601f168201915b5050505050905090565b6000806103f96107c0565b90506104068185856107c8565b600191505092915050565b6000600254905090565b6000806104266107c0565b9050610433858285610993565b61043e858585610a1f565b60019150509392505050565b60006012905090565b60008061045e6107c0565b90506104f2818585600160008673ffffffffffffffffffffffffffffffffffffffff1673ffffffffffffffffffffffffffffffffffffffff16815260200190815260200160002060008973ffffffffffffffffffffffffffffffffffffffff1673ffffffffffffffffffffffffffffffffffffffff168152602001908152602001600020546104ed9190611052565b6107c8565b600191505092915050565b6000670de0b6b3a76400006006548361051691906110d7565b6105209190611108565b9050919050565b60008060008373ffffffffffffffffffffffffffffffffffffffff1673ffffffffffffffffffffffffffffffffffffffff168152602001908152602001600020549050919050565b8060068190555050565b60606004805461058890610ff1565b80601f01602080910402602001604051908101604052809291908181526020018280546105b490610ff1565b80156106015780601f106105d657610100808354040283529160200191610601565b820191906000526020600020905b8154815290600101906020018083116105e457829003601f168201915b5050505050905090565b6000600654905090565b6000600654826106259190611108565b9050919050565b6000806106376107c0565b90506000600160008373ffffffffffffffffffffffffffffffffffffffff1673ffffffffffffffffffffffffffffffffffffffff16815260200190815260200160002060008673ffffffffffffffffffffffffffffffffffffffff1673ffffffffffffffffffffffffffffffffffffffff168152602001908152602001600020549050838110156106fd576040517f08c379a00000000000000000000000000000000000000000000000000000000081526004016106f4906111d4565b60405180910390fd5b61070a82868684036107c8565b60019250505092915050565b6000806107216107c0565b905061072e818585610a1f565b600191505092915050565b6000600160008473ffffffffffffffffffffffffffffffffffffffff1673ffffffffffffffffffffffffffffffffffffffff16815260200190815260200160002060008373ffffffffffffffffffffffffffffffffffffffff1673ffffffffffffffffffffffffffffffffffffffff16815260200190815260200160002054905092915050565b600033905090565b600073ffffffffffffffffffffffffffffffffffffffff168373ffffffffffffffffffffffffffffffffffffffff161415610838576040517f08c379a000000000000000000000000000000000000000000000000000000000815260040161082f90611266565b60405180910390fd5b600073ffffffffffffffffffffffffffffffffffffffff168273ffffffffffffffffffffffffffffffffffffffff1614156108a8576040517f08c379a000000000000000000000000000000000000000000000000000000000815260040161089f906112f8565b60405180910390fd5b80600160008573ffffffffffffffffffffffffffffffffffffffff1673ffffffffffffffffffffffffffffffffffffffff16815260200190815260200160002060008473ffffffffffffffffffffffffffffffffffffffff1673ffffffffffffffffffffffffffffffffffffffff168152602001908152602001600020819055508173ffffffffffffffffffffffffffffffffffffffff168373ffffffffffffffffffffffffffffffffffffffff167f8c5be1e5ebec7d5bd14f71427d1e84f3dd0314c0f7b2291e5b200ac8c7c3b925836040516109869190610e83565b60405180910390a3505050565b600061099f8484610739565b90507fffffffffffffffffffffffffffffffffffffffffffffffffffffffffffffffff8114610a195781811015610a0b576040517f08c379a0000000000000000000000000000000000000000000000000000000008152600401610a0290611364565b60405180910390fd5b610a1884848484036107c8565b5b50505050565b600073ffffffffffffffffffffffffffffffffffffffff168373ffffffffffffffffffffffffffffffffffffffff161415610a8f576040517f08c379a0000000000000000000000000000000000000000000000000000000008152600401610a86906113f6565b60405180910390fd5b600073ffffffffffffffffffffffffffffffffffffffff168273ffffffffffffffffffffffffffffffffffffffff161415610aff576040517f08c379a0000000000000000000000000000000000000000000000000000000008152600401610af690611488565b60405180910390fd5b610b0a838383610ca0565b60008060008573ffffffffffffffffffffffffffffffffffffffff1673ffffffffffffffffffffffffffffffffffffffff16815260200190815260200160002054905081811015610b90576040517f08c379a0000000000000000000000000000000000000000000000000000000008152600401610b879061151a565b60405180910390fd5b8181036000808673ffffffffffffffffffffffffffffffffffffffff1673ffffffffffffffffffffffffffffffffffffffff16815260200190815260200160002081905550816000808573ffffffffffffffffffffffffffffffffffffffff1673ffffffffffffffffffffffffffffffffffffffff1681526020019081526020016000206000828254610c239190611052565b925050819055508273ffffffffffffffffffffffffffffffffffffffff168473ffffffffffffffffffffffffffffffffffffffff167fddf252ad1be2c89b69c2b068fc378daa952ba7f163c4a11628f55a4df523b3ef84604051610c879190610e83565b60405180910390a3610c9a848484610ca5565b50505050565b505050565b505050565b600081519050919050565b600082825260208201905092915050565b60005b83811015610ce4578082015181840152602081019050610cc9565b83811115610cf3576000848401525b50505050565b6000601f19601f8301169050919050565b6000610d1582610caa565b610d1f8185610cb5565b9350610d2f818560208601610cc6565b610d3881610cf9565b840191505092915050565b60006020820190508181036000830152610d5d8184610d0a565b905092915050565b600080fd5b600073ffffffffffffffffffffffffffffffffffffffff82169050919050565b6000610d9582610d6a565b9050919050565b610da581610d8a565b8114610db057600080fd5b50565b600081359050610dc281610d9c565b92915050565b6000819050919050565b610ddb81610dc8565b8114610de657600080fd5b50565b600081359050610df881610dd2565b92915050565b60008060408385031215610e1557610e14610d65565b5b6000610e2385828601610db3565b9250506020610e3485828601610de9565b9150509250929050565b60008115159050919050565b610e5381610e3e565b82525050565b6000602082019050610e6e6000830184610e4a565b92915050565b610e7d81610dc8565b82525050565b6000602082019050610e986000830184610e74565b92915050565b600080600060608486031215610eb757610eb6610d65565b5b6000610ec586828701610db3565b9350506020610ed686828701610db3565b9250506040610ee786828701610de9565b9150509250925092565b600060ff82169050919050565b610f0781610ef1565b82525050565b6000602082019050610f226000830184610efe565b92915050565b600060208284031215610f3e57610f3d610d65565b5b6000610f4c84828501610de9565b91505092915050565b600060208284031215610f6b57610f6a610d65565b5b6000610f7984828501610db3565b91505092915050565b60008060408385031215610f9957610f98610d65565b5b6000610fa785828601610db3565b9250506020610fb885828601610db3565b9150509250929050565b7f4e487b7100000000000000000000000000000000000000000000000000000000600052602260045260246000fd5b6000600282049050600182168061100957607f821691505b6020821081141561101d5761101c610fc2565b5b50919050565b7f4e487b7100000000000000000000000000000000000000000000000000000000600052601160045260246000fd5b600061105d82610dc8565b915061106883610dc8565b9250827fffffffffffffffffffffffffffffffffffffffffffffffffffffffffffffffff0382111561109d5761109c611023565b5b828201905092915050565b7f4e487b7100000000000000000000000000000000000000000000000000000000600052601260045260246000fd5b60006110e282610dc8565b91506110ed83610dc8565b9250826110fd576110fc6110a8565b5b828204905092915050565b600061111382610dc8565b915061111e83610dc8565b9250817fffffffffffffffffffffffffffffffffffffffffffffffffffffffffffffffff048311821515161561115757611156611023565b5b828202905092915050565b7f45524332303a2064656372656173656420616c6c6f77616e63652062656c6f7760008201527f207a65726f000000000000000000000000000000000000000000000000000000602082015250565b60006111be602583610cb5565b91506111c982611162565b604082019050919050565b600060208201905081810360008301526111ed816111b1565b9050919050565b7f45524332303a20617070726f76652066726f6d20746865207a65726f2061646460008201527f7265737300000000000000000000000000000000000000000000000000000000602082015250565b6000611250602483610cb5565b915061125b826111f4565b604082019050919050565b6000602082019050818103600083015261127f81611243565b9050919050565b7f45524332303a20617070726f766520746f20746865207a65726f20616464726560008201527f7373000000000000000000000000000000000000000000000000000000000000602082015250565b60006112e2602283610cb5565b91506112ed82611286565b604082019050919050565b60006020820190508181036000830152611311816112d5565b9050919050565b7f45524332303a20696e73756666696369656e7420616c6c6f77616e6365000000600082015250565b600061134e601d83610cb5565b915061135982611318565b602082019050919050565b6000602082019050818103600083015261137d81611341565b9050919050565b7f45524332303a207472616e736665722066726f6d20746865207a65726f20616460008201527f6472657373000000000000000000000000000000000000000000000000000000602082015250565b60006113e0602583610cb5565b91506113eb82611384565b604082019050919050565b6000602082019050818103600083015261140f816113d3565b9050919050565b7f45524332303a207472616e7366657220746f20746865207a65726f206164647260008201527f6573730000000000000000000000000000000000000000000000000000000000602082015250565b6000611472602383610cb5565b915061147d82611416565b604082019050919050565b600060208201905081810360008301526114a181611465565b9050919050565b7f45524332303a207472616e7366657220616d6f756e742065786365656473206260008201527f616c616e63650000000000000000000000000000000000000000000000000000602082015250565b6000611504602683610cb5565b915061150f826114a8565b604082019050919050565b60006020820190508181036000830152611533816114f7565b905091905056fea264697066735822122044333ee25149012efa41dcec966809bd12307245613fbff4a2b537321502284364736f6c634300080c0033",
  "immutableReferences": {},
  "source": "// SPDX-License-Identifier: MIT\npragma solidity ^0.8.0;\n\nimport \"./../node_modules/@openzeppelin/contracts/token/ERC20/ERC20.sol\";\n\ncontract MyToken is Context, ERC20 {\n\n    address creator;\n    uint price = 1 * 10 ** 18;\n    uint constant ETH_PRICE = 1 * 10 ** 18;\n\n    constructor(\n        string memory name,\n        string memory symbol,\n        uint256 _amount,\n        uint256 partialPrice\n    ) ERC20(name, symbol) {\n        creator = msg.sender;\n        price = price * partialPrice * _amount;\n        _mint(creator, price);\n    }\n\n    function setPrice(uint _price) public {\n        price = _price;\n    }\n\n    function getPrice() public view returns(uint) {\n        return price;\n    }\n\n    function calculateTotalSum(uint _amountCoins) public view returns(uint) {\n        return _amountCoins * price;\n    }\n\n    function calculateTotalAmountsOfCoin(uint weiCount) public view returns(uint) {\n        return weiCount / price * ETH_PRICE;\n    }\n}\n",
  "sourcePath": "/Users/evgenijkuznecov/Desktop/projects/dapp-swap/contracts/createToken.sol",
  "compiler": {
    "name": "solc",
    "version": "0.8.12+commit.f00d7308.Emscripten.clang"
  },
  "schemaVersion": "3.4.5",
  "updatedAt": "2022-02-21T13:16:12.472Z",
  "networkType": "ethereum",
  "devdoc": {
    "kind": "dev",
    "methods": {
      "allowance(address,address)": {
        "details": "See {IERC20-allowance}."
      },
      "approve(address,uint256)": {
        "details": "See {IERC20-approve}. NOTE: If `amount` is the maximum `uint256`, the allowance is not updated on `transferFrom`. This is semantically equivalent to an infinite approval. Requirements: - `spender` cannot be the zero address."
      },
      "balanceOf(address)": {
        "details": "See {IERC20-balanceOf}."
      },
      "decimals()": {
        "details": "Returns the number of decimals used to get its user representation. For example, if `decimals` equals `2`, a balance of `505` tokens should be displayed to a user as `5.05` (`505 / 10 ** 2`). Tokens usually opt for a value of 18, imitating the relationship between Ether and Wei. This is the value {ERC20} uses, unless this function is overridden; NOTE: This information is only used for _display_ purposes: it in no way affects any of the arithmetic of the contract, including {IERC20-balanceOf} and {IERC20-transfer}."
      },
      "decreaseAllowance(address,uint256)": {
        "details": "Atomically decreases the allowance granted to `spender` by the caller. This is an alternative to {approve} that can be used as a mitigation for problems described in {IERC20-approve}. Emits an {Approval} event indicating the updated allowance. Requirements: - `spender` cannot be the zero address. - `spender` must have allowance for the caller of at least `subtractedValue`."
      },
      "increaseAllowance(address,uint256)": {
        "details": "Atomically increases the allowance granted to `spender` by the caller. This is an alternative to {approve} that can be used as a mitigation for problems described in {IERC20-approve}. Emits an {Approval} event indicating the updated allowance. Requirements: - `spender` cannot be the zero address."
      },
      "name()": {
        "details": "Returns the name of the token."
      },
      "symbol()": {
        "details": "Returns the symbol of the token, usually a shorter version of the name."
      },
      "totalSupply()": {
        "details": "See {IERC20-totalSupply}."
      },
      "transfer(address,uint256)": {
        "details": "See {IERC20-transfer}. Requirements: - `to` cannot be the zero address. - the caller must have a balance of at least `amount`."
      },
      "transferFrom(address,address,uint256)": {
        "details": "See {IERC20-transferFrom}. Emits an {Approval} event indicating the updated allowance. This is not required by the EIP. See the note at the beginning of {ERC20}. NOTE: Does not update the allowance if the current allowance is the maximum `uint256`. Requirements: - `from` and `to` cannot be the zero address. - `from` must have a balance of at least `amount`. - the caller must have allowance for ``from``'s tokens of at least `amount`."
      }
    },
    "version": 1
  },
  "userdoc": {
    "kind": "user",
    "methods": {},
    "version": 1
  }
}