{
  "contractName": "SwapVendor",
  "abi": [
    {
      "inputs": [],
      "stateMutability": "nonpayable",
      "type": "constructor"
    },
    {
      "inputs": [
        {
          "internalType": "address",
          "name": "",
          "type": "address"
        }
      ],
      "name": "tokens",
      "outputs": [
        {
          "internalType": "bool",
          "name": "",
          "type": "bool"
        }
      ],
      "stateMutability": "view",
      "type": "function",
      "constant": true
    },
    {
      "inputs": [
        {
          "internalType": "address",
          "name": "_address",
          "type": "address"
        },
        {
          "internalType": "uint256",
          "name": "liquidity",
          "type": "uint256"
        }
      ],
      "name": "addToken",
      "outputs": [],
      "stateMutability": "nonpayable",
      "type": "function"
    },
    {
      "inputs": [
        {
          "internalType": "address",
          "name": "token",
          "type": "address"
        }
      ],
      "name": "buyToken",
      "outputs": [],
      "stateMutability": "payable",
      "type": "function",
      "payable": true
    },
    {
      "inputs": [
        {
          "internalType": "address",
          "name": "token",
          "type": "address"
        },
        {
          "internalType": "uint256",
          "name": "amount",
          "type": "uint256"
        }
      ],
      "name": "sellToken",
      "outputs": [],
      "stateMutability": "payable",
      "type": "function",
      "payable": true
    },
    {
      "inputs": [
        {
          "internalType": "address",
          "name": "sailedToken",
          "type": "address"
        },
        {
          "internalType": "uint256",
          "name": "sailedAmount",
          "type": "uint256"
        },
        {
          "internalType": "address",
          "name": "boughtToken",
          "type": "address"
        }
      ],
      "name": "swap",
      "outputs": [],
      "stateMutability": "payable",
      "type": "function",
      "payable": true
    }
  ],
  "bytecode": "0x608060405234801561001057600080fd5b5033600160006101000a81548173ffffffffffffffffffffffffffffffffffffffff021916908373ffffffffffffffffffffffffffffffffffffffff160217905550611a4d806100616000396000f3fe60806040526004361061004a5760003560e01c80636d069a671461004f5780637e72fb521461006b578063af81c5b914610087578063e4860339146100b0578063f464e7db146100ed575b600080fd5b61006960048036038101906100649190610fe9565b610109565b005b6100856004803603810190610080919061103c565b6107d8565b005b34801561009357600080fd5b506100ae60048036038101906100a99190611069565b610965565b005b3480156100bc57600080fd5b506100d760048036038101906100d2919061103c565b610c1c565b6040516100e491906110c4565b60405180910390f35b61010760048036038101906101029190611069565b610c3c565b005b60008060008573ffffffffffffffffffffffffffffffffffffffff1673ffffffffffffffffffffffffffffffffffffffff16815260200190815260200160002060009054906101000a900460ff16905060008060008473ffffffffffffffffffffffffffffffffffffffff1673ffffffffffffffffffffffffffffffffffffffff16815260200190815260200160002060009054906101000a900460ff169050600084905060008690506000859050846101f8576040517f08c379a00000000000000000000000000000000000000000000000000000000081526004016101ef90611162565b60405180910390fd5b83610238576040517f08c379a000000000000000000000000000000000000000000000000000000000815260040161022f906111f4565b60405180910390fd5b60008273ffffffffffffffffffffffffffffffffffffffff166370a08231306040518263ffffffff1660e01b81526004016102739190611223565b602060405180830381865afa158015610290573d6000803e3d6000fd5b505050506040513d601f19601f820116820180604052508101906102b49190611253565b905060008273ffffffffffffffffffffffffffffffffffffffff166370a08231306040518263ffffffff1660e01b81526004016102f19190611223565b602060405180830381865afa15801561030e573d6000803e3d6000fd5b505050506040513d601f19601f820116820180604052508101906103329190611253565b905060008211610377576040517f08c379a000000000000000000000000000000000000000000000000000000000815260040161036e906112f2565b60405180910390fd5b600081116103ba576040517f08c379a00000000000000000000000000000000000000000000000000000000081526004016103b190611384565b60405180910390fd5b60008473ffffffffffffffffffffffffffffffffffffffff1663dd62ed3e600160009054906101000a900473ffffffffffffffffffffffffffffffffffffffff16336040518363ffffffff1660e01b81526004016104199291906113a4565b602060405180830381865afa158015610436573d6000803e3d6000fd5b505050506040513d601f19601f8201168201806040525081019061045a9190611253565b90508981101561049f576040517f08c379a000000000000000000000000000000000000000000000000000000000815260040161049690611419565b60405180910390fd5b60008573ffffffffffffffffffffffffffffffffffffffff166323b872dd33308e6040518463ffffffff1660e01b81526004016104de93929190611448565b6020604051808303816000875af11580156104fd573d6000803e3d6000fd5b505050506040513d601f19601f8201168201806040525081019061052191906114ab565b905080610563576040517f08c379a000000000000000000000000000000000000000000000000000000000815260040161055a9061154a565b60405180910390fd5b60008573ffffffffffffffffffffffffffffffffffffffff1663dd62ed3e600160009054906101000a900473ffffffffffffffffffffffffffffffffffffffff16306040518363ffffffff1660e01b81526004016105c29291906113a4565b602060405180830381865afa1580156105df573d6000803e3d6000fd5b505050506040513d601f19601f820116820180604052508101906106039190611253565b905087811015610648576040517f08c379a000000000000000000000000000000000000000000000000000000000815260040161063f906115b6565b60405180910390fd5b60008673ffffffffffffffffffffffffffffffffffffffff166370a08231306040518263ffffffff1660e01b81526004016106839190611223565b602060405180830381865afa1580156106a0573d6000803e3d6000fd5b505050506040513d601f19601f820116820180604052508101906106c49190611253565b11610704576040517f08c379a00000000000000000000000000000000000000000000000000000000081526004016106fb90611622565b60405180910390fd5b60008673ffffffffffffffffffffffffffffffffffffffff166323b872dd30338c6040518463ffffffff1660e01b815260040161074393929190611448565b6020604051808303816000875af1158015610762573d6000803e3d6000fd5b505050506040513d601f19601f8201168201806040525081019061078691906114ab565b9050806107c8576040517f08c379a00000000000000000000000000000000000000000000000000000000081526004016107bf906116b4565b60405180910390fd5b5050505050505050505050505050565b600034905060008111610820576040517f08c379a000000000000000000000000000000000000000000000000000000000815260040161081790611720565b60405180910390fd5b60008273ffffffffffffffffffffffffffffffffffffffff166370a08231306040518263ffffffff1660e01b815260040161085b9190611223565b602060405180830381865afa158015610878573d6000803e3d6000fd5b505050506040513d601f19601f8201168201806040525081019061089c9190611253565b9050600081116108e1576040517f08c379a00000000000000000000000000000000000000000000000000000000081526004016108d89061178c565b60405180910390fd5b8273ffffffffffffffffffffffffffffffffffffffff1663a9059cbb33846040518363ffffffff1660e01b815260040161091c9291906117ac565b6020604051808303816000875af115801561093b573d6000803e3d6000fd5b505050506040513d601f19601f8201168201806040525081019061095f91906114ab565b50505050565b600081116109a8576040517f08c379a000000000000000000000000000000000000000000000000000000000815260040161099f90611821565b60405180910390fd5b600160009054906101000a900473ffffffffffffffffffffffffffffffffffffffff1673ffffffffffffffffffffffffffffffffffffffff163373ffffffffffffffffffffffffffffffffffffffff1614610a38576040517f08c379a0000000000000000000000000000000000000000000000000000000008152600401610a2f9061188d565b60405180910390fd5b60016000808473ffffffffffffffffffffffffffffffffffffffff1673ffffffffffffffffffffffffffffffffffffffff16815260200190815260200160002060006101000a81548160ff02191690831515021790555060008273ffffffffffffffffffffffffffffffffffffffff1663dd62ed3e600160009054906101000a900473ffffffffffffffffffffffffffffffffffffffff16336040518363ffffffff1660e01b8152600401610aee9291906113a4565b602060405180830381865afa158015610b0b573d6000803e3d6000fd5b505050506040513d601f19601f82011682018060405250810190610b2f9190611253565b905081811015610b74576040517f08c379a0000000000000000000000000000000000000000000000000000000008152600401610b6b906118f9565b60405180910390fd5b8273ffffffffffffffffffffffffffffffffffffffff166323b872dd600160009054906101000a900473ffffffffffffffffffffffffffffffffffffffff1630856040518463ffffffff1660e01b8152600401610bd393929190611448565b6020604051808303816000875af1158015610bf2573d6000803e3d6000fd5b505050506040513d601f19601f82011682018060405250810190610c1691906114ab565b50505050565b60006020528060005260406000206000915054906101000a900460ff1681565b60008273ffffffffffffffffffffffffffffffffffffffff166370a08231336040518263ffffffff1660e01b8152600401610c779190611223565b602060405180830381865afa158015610c94573d6000803e3d6000fd5b505050506040513d601f19601f82011682018060405250810190610cb89190611253565b905060008111610cfd576040517f08c379a0000000000000000000000000000000000000000000000000000000008152600401610cf49061198b565b60405180910390fd5b60008373ffffffffffffffffffffffffffffffffffffffff166370a08231306040518263ffffffff1660e01b8152600401610d389190611223565b602060405180830381865afa158015610d55573d6000803e3d6000fd5b505050506040513d601f19601f82011682018060405250810190610d799190611253565b905060008111610dbe576040517f08c379a0000000000000000000000000000000000000000000000000000000008152600401610db5906119f7565b60405180910390fd5b60008473ffffffffffffffffffffffffffffffffffffffff1663dd62ed3e33306040518363ffffffff1660e01b8152600401610dfb9291906113a4565b602060405180830381865afa158015610e18573d6000803e3d6000fd5b505050506040513d601f19601f82011682018060405250810190610e3c9190611253565b905083811015610e81576040517f08c379a0000000000000000000000000000000000000000000000000000000008152600401610e78906118f9565b60405180910390fd5b8473ffffffffffffffffffffffffffffffffffffffff166323b872dd3330876040518463ffffffff1660e01b8152600401610ebe93929190611448565b6020604051808303816000875af1158015610edd573d6000803e3d6000fd5b505050506040513d601f19601f82011682018060405250810190610f0191906114ab565b503373ffffffffffffffffffffffffffffffffffffffff166108fc859081150290604051600060405180830381858888f19350505050158015610f48573d6000803e3d6000fd5b505050505050565b600080fd5b600073ffffffffffffffffffffffffffffffffffffffff82169050919050565b6000610f8082610f55565b9050919050565b610f9081610f75565b8114610f9b57600080fd5b50565b600081359050610fad81610f87565b92915050565b6000819050919050565b610fc681610fb3565b8114610fd157600080fd5b50565b600081359050610fe381610fbd565b92915050565b60008060006060848603121561100257611001610f50565b5b600061101086828701610f9e565b935050602061102186828701610fd4565b925050604061103286828701610f9e565b9150509250925092565b60006020828403121561105257611051610f50565b5b600061106084828501610f9e565b91505092915050565b600080604083850312156110805761107f610f50565b5b600061108e85828601610f9e565b925050602061109f85828601610fd4565b9150509250929050565b60008115159050919050565b6110be816110a9565b82525050565b60006020820190506110d960008301846110b5565b92915050565b600082825260208201905092915050565b7f546f6b656e2c20776869636820796f752077616e74207361696c2c20646f657360008201527f6e27742065786973742100000000000000000000000000000000000000000000602082015250565b600061114c602a836110df565b9150611157826110f0565b604082019050919050565b6000602082019050818103600083015261117b8161113f565b9050919050565b7f546f6b656e2c20776869636820796f752077616e74206275792c20646f65736e60008201527f2774206578697374210000000000000000000000000000000000000000000000602082015250565b60006111de6029836110df565b91506111e982611182565b604082019050919050565b6000602082019050818103600083015261120d816111d1565b9050919050565b61121d81610f75565b82525050565b60006020820190506112386000830184611214565b92915050565b60008151905061124d81610fbd565b92915050565b60006020828403121561126957611268610f50565b5b60006112778482850161123e565b91505092915050565b7f436f6e7472616374206861736e277420676f7420636f696e73206f662073616960008201527f6c656420746f6b656e2100000000000000000000000000000000000000000000602082015250565b60006112dc602a836110df565b91506112e782611280565b604082019050919050565b6000602082019050818103600083015261130b816112cf565b9050919050565b7f436f6e7472616374206861736e277420676f7420636f696e73206f662062757960008201527f20746f6b656e2100000000000000000000000000000000000000000000000000602082015250565b600061136e6027836110df565b915061137982611312565b604082019050919050565b6000602082019050818103600083015261139d81611361565b9050919050565b60006040820190506113b96000830185611214565b6113c66020830184611214565b9392505050565b7f436865636b20616c6c6f77616e6365207361696c656420746f6b656e21000000600082015250565b6000611403601d836110df565b915061140e826113cd565b602082019050919050565b60006020820190508181036000830152611432816113f6565b9050919050565b61144281610fb3565b82525050565b600060608201905061145d6000830186611214565b61146a6020830185611214565b6114776040830184611439565b949350505050565b611488816110a9565b811461149357600080fd5b50565b6000815190506114a58161147f565b92915050565b6000602082840312156114c1576114c0610f50565b5b60006114cf84828501611496565b91505092915050565b7f4661696c656420746f207472616e73666572207361696c656420746f6b656e7360008201527f2066726f6d207573657220746f20636f6e747261637421000000000000000000602082015250565b60006115346037836110df565b915061153f826114d8565b604082019050919050565b6000602082019050818103600083015261156381611527565b9050919050565b7f436865636b20616c6c6f77616e63652062757920746f6b656e21000000000000600082015250565b60006115a0601a836110df565b91506115ab8261156a565b602082019050919050565b600060208201905081810360008301526115cf81611593565b9050919050565b7f436f6e74726163742062616c616e6365206c657373207468616e203021000000600082015250565b600061160c601d836110df565b9150611617826115d6565b602082019050919050565b6000602082019050818103600083015261163b816115ff565b9050919050565b7f4661696c656420746f207472616e736665722062757920746f6b656e7320667260008201527f6f6d20636f6e747261637420746f207573657221000000000000000000000000602082015250565b600061169e6034836110df565b91506116a982611642565b604082019050919050565b600060208201905081810360008301526116cd81611691565b9050919050565b7f596f7520686176656e277420676f742045544821000000000000000000000000600082015250565b600061170a6014836110df565b9150611715826116d4565b602082019050919050565b60006020820190508181036000830152611739816116fd565b9050919050565b7f43757272656e7420746f6b656e2062616c616e63652030210000000000000000600082015250565b60006117766018836110df565b915061178182611740565b602082019050919050565b600060208201905081810360008301526117a581611769565b9050919050565b60006040820190506117c16000830185611214565b6117ce6020830184611439565b9392505050565b7f41737369676e20616d6f756e7420666f72206c69717569646974792100000000600082015250565b600061180b601c836110df565b9150611816826117d5565b602082019050919050565b6000602082019050818103600083015261183a816117fe565b9050919050565b7f4f6e6c79206f776e65722063616e2061646420746f6b656e2100000000000000600082015250565b60006118776019836110df565b915061188282611841565b602082019050919050565b600060208201905081810360008301526118a68161186a565b9050919050565b7f436865636b20616c6c6f77616e63652100000000000000000000000000000000600082015250565b60006118e36010836110df565b91506118ee826118ad565b602082019050919050565b60006020820190508181036000830152611912816118d6565b9050919050565b7f42616c616e6365206f662063757272656e7420746f6b656e20657175616c732060008201527f3021000000000000000000000000000000000000000000000000000000000000602082015250565b60006119756022836110df565b915061198082611919565b604082019050919050565b600060208201905081810360008301526119a481611968565b9050919050565b7f4c697175696469747920657175616c7320302100000000000000000000000000600082015250565b60006119e16013836110df565b91506119ec826119ab565b602082019050919050565b60006020820190508181036000830152611a10816119d4565b905091905056fea2646970667358221220f6caf097f041730e08aa4536ccddac28818ee1427f50ac1284ece1042d39cc5b64736f6c634300080c0033",
  "immutableReferences": {},
  "source": "// SPDX-License-Identifier: GPL-3.0\npragma solidity ^0.8.0;\n\n\nimport \"./../node_modules/@openzeppelin/contracts/token/ERC20/ERC20.sol\";\nimport \"./createToken.sol\";\n\n\n\ncontract SwapVendor {\n    mapping(address => bool) public tokens;\n    address owner;\n\n    constructor() {\n        owner = msg.sender;\n    }\n\n    function addToken(address _address, uint256 liquidity) public {\n        require(liquidity > 0, \"Assign amount for liquidity!\");\n        require(msg.sender == owner, \"Only owner can add token!\");\n        tokens[_address] = true;\n\n        uint allowance = ERC20(_address).allowance(owner, msg.sender);\n        require(allowance >= liquidity, \"Check allowance!\");\n\n        ERC20(_address).transferFrom(owner, address(this), liquidity);\n    }\n\n    //   function getTokenList() public view returns(memory) {\n    //       memory _tokens = tokens\n    //       return _tokens;\n    //   }\n\n\n    function buyToken(address token) public payable {\n\n        uint256 amountToBuy = msg.value;\n        require(amountToBuy > 0, \"You haven't got ETH!\");\n\n        uint256 curBalance = ERC20(token).balanceOf(address(this));\n        require(curBalance > 0, \"Current token balance 0!\");\n\n        ERC20(token).transfer(msg.sender, amountToBuy);\n    }\n\n    function sellToken(address token, uint amount) public payable {\n        uint256 userBalance = ERC20(token).balanceOf(msg.sender);\n        require(userBalance > 0, \"Balance of current token equals 0!\");\n\n        uint256 contractBalance = ERC20(token).balanceOf(address(this));\n        require(contractBalance > 0, \"Liquidity equals 0!\");\n\n        uint allowance = ERC20(token).allowance(msg.sender, address(this));\n        require(allowance >= amount, \"Check allowance!\");\n\n        ERC20(token).transferFrom(msg.sender, address(this), amount);\n        payable(msg.sender).transfer(amount);\n\n    }\n\n    function swap(address sailedToken, uint256 sailedAmount,\n        address boughtToken) public payable {\n\n        bool checkSailToken = tokens[sailedToken];\n        bool checkBuyTokenByEth = tokens[boughtToken];\n\n        uint buyAmount = sailedAmount;\n\n        MyToken sToken = MyToken(sailedToken);\n        MyToken bToken = MyToken(boughtToken);\n\n        require(checkSailToken, \"Token, which you want sail, doesn't exist!\");\n        require(checkBuyTokenByEth, \"Token, which you want buy, doesn't exist!\");\n\n        uint256 getBalanceOfContractForSailedToken = sToken.balanceOf(address(this));\n        uint256 getBalanceOfContractForBuyTokenByEth = bToken.balanceOf(address(this));\n\n        require(getBalanceOfContractForSailedToken > 0, \"Contract hasn't got coins of sailed token!\");\n        require(getBalanceOfContractForBuyTokenByEth > 0, \"Contract hasn't got coins of buy token!\");\n\n        uint allowanceSailedToken = ERC20(sToken).allowance(owner, msg.sender);\n        require(allowanceSailedToken >= sailedAmount, \"Check allowance sailed token!\");\n\n        (bool sentSailedToken) = sToken.transferFrom(msg.sender, address(this), sailedAmount);\n        require(sentSailedToken, \"Failed to transfer sailed tokens from user to contract!\");\n\n        uint allowanceBuyTokenByEth = ERC20(bToken).allowance(owner, address(this));\n        require(allowanceBuyTokenByEth >= buyAmount, \"Check allowance buy token!\");\n\n        require(bToken.balanceOf(address(this)) > 0, \"Contract balance less than 0!\" );\n\n        (bool sentBuyTokenByEth) = bToken.transferFrom(address(this), msg.sender, buyAmount);\n        require(sentBuyTokenByEth, \"Failed to transfer buy tokens from contract to user!\");\n    }\n}\n",
  "sourcePath": "/Users/evgenijkuznecov/Desktop/projects/dapp-swap/contracts/swapVendor.sol",
  "compiler": {
    "name": "solc",
    "version": "0.8.12+commit.f00d7308.Emscripten.clang"
  },
  "schemaVersion": "3.4.5",
  "updatedAt": "2022-02-21T13:17:44.883Z",
  "networkType": "ethereum",
  "devdoc": {
    "kind": "dev",
    "methods": {},
    "version": 1
  },
  "userdoc": {
    "kind": "user",
    "methods": {},
    "version": 1
  }
}